{
  "_format": "hh-sol-artifact-1",
  "contractName": "SimpleStorage",
  "sourceName": "contracts/SimpleStorage.sol",
  "abi": [
    {
      "anonymous": false,
      "inputs": [
        {
          "indexed": true,
          "internalType": "address",
          "name": "previousOwner",
          "type": "address"
        },
        {
          "indexed": true,
          "internalType": "address",
          "name": "newOwner",
          "type": "address"
        }
      ],
      "name": "OwnershipTransferred",
      "type": "event"
    },
    {
      "inputs": [],
      "name": "owner",
      "outputs": [
        {
          "internalType": "address",
          "name": "",
          "type": "address"
        }
      ],
      "stateMutability": "view",
      "type": "function"
    },
    {
      "inputs": [],
      "name": "renounceOwnership",
      "outputs": [],
      "stateMutability": "nonpayable",
      "type": "function"
    },
    {
      "inputs": [
        {
          "internalType": "string",
          "name": "_word",
          "type": "string"
        }
      ],
      "name": "setWord",
      "outputs": [],
      "stateMutability": "nonpayable",
      "type": "function"
    },
    {
      "inputs": [
        {
          "internalType": "address",
          "name": "newOwner",
          "type": "address"
        }
      ],
      "name": "transferOwnership",
      "outputs": [],
      "stateMutability": "nonpayable",
      "type": "function"
    },
    {
      "inputs": [],
      "name": "word",
      "outputs": [
        {
          "internalType": "string",
          "name": "",
          "type": "string"
        }
      ],
      "stateMutability": "view",
      "type": "function"
    }
  ],
  "bytecode": "0x60c0604052600c60809081526b125b9a5d1a585b0815dbdc9960a21b60a05260019061002b9082610136565b5034801561003857600080fd5b5061004233610047565b6101f5565b600080546001600160a01b038381166001600160a01b0319831681178455604051919092169283917f8be0079c531659141344cd1fd0a4f28419497f9722a3daafe3b4186f6b6457e09190a35050565b634e487b7160e01b600052604160045260246000fd5b600181811c908216806100c157607f821691505b6020821081036100e157634e487b7160e01b600052602260045260246000fd5b50919050565b601f82111561013157600081815260208120601f850160051c8101602086101561010e5750805b601f850160051c820191505b8181101561012d5782815560010161011a565b5050505b505050565b81516001600160401b0381111561014f5761014f610097565b6101638161015d84546100ad565b846100e7565b602080601f83116001811461019857600084156101805750858301515b600019600386901b1c1916600185901b17855561012d565b600085815260208120601f198616915b828110156101c7578886015182559484019460019091019084016101a8565b50858210156101e55787850151600019600388901b60f8161c191681555b5050505050600190811b01905550565b61056b806102046000396000f3fe608060405234801561001057600080fd5b50600436106100575760003560e01c80632f64d3861461005c578063715018a61461007a5780638da5cb5b14610084578063cd048de61461009f578063f2fde38b146100b2575b600080fd5b6100646100c5565b60405161007191906102a7565b60405180910390f35b610082610153565b005b6000546040516001600160a01b039091168152602001610071565b6100826100ad36600461030b565b610167565b6100826100c03660046103bc565b61017f565b600180546100d2906103ec565b80601f01602080910402602001604051908101604052809291908181526020018280546100fe906103ec565b801561014b5780601f106101205761010080835404028352916020019161014b565b820191906000526020600020905b81548152906001019060200180831161012e57829003601f168201915b505050505081565b61015b6101fd565b6101656000610257565b565b61016f6101fd565b600161017b8282610475565b5050565b6101876101fd565b6001600160a01b0381166101f15760405162461bcd60e51b815260206004820152602660248201527f4f776e61626c653a206e6577206f776e657220697320746865207a65726f206160448201526564647265737360d01b60648201526084015b60405180910390fd5b6101fa81610257565b50565b6000546001600160a01b031633146101655760405162461bcd60e51b815260206004820181905260248201527f4f776e61626c653a2063616c6c6572206973206e6f7420746865206f776e657260448201526064016101e8565b600080546001600160a01b038381166001600160a01b0319831681178455604051919092169283917f8be0079c531659141344cd1fd0a4f28419497f9722a3daafe3b4186f6b6457e09190a35050565b600060208083528351808285015260005b818110156102d4578581018301518582016040015282016102b8565b506000604082860101526040601f19601f8301168501019250505092915050565b634e487b7160e01b600052604160045260246000fd5b60006020828403121561031d57600080fd5b813567ffffffffffffffff8082111561033557600080fd5b818401915084601f83011261034957600080fd5b81358181111561035b5761035b6102f5565b604051601f8201601f19908116603f01168101908382118183101715610383576103836102f5565b8160405282815287602084870101111561039c57600080fd5b826020860160208301376000928101602001929092525095945050505050565b6000602082840312156103ce57600080fd5b81356001600160a01b03811681146103e557600080fd5b9392505050565b600181811c9082168061040057607f821691505b60208210810361042057634e487b7160e01b600052602260045260246000fd5b50919050565b601f82111561047057600081815260208120601f850160051c8101602086101561044d5750805b601f850160051c820191505b8181101561046c57828155600101610459565b5050505b505050565b815167ffffffffffffffff81111561048f5761048f6102f5565b6104a38161049d84546103ec565b84610426565b602080601f8311600181146104d857600084156104c05750858301515b600019600386901b1c1916600185901b17855561046c565b600085815260208120601f198616915b82811015610507578886015182559484019460019091019084016104e8565b50858210156105255787850151600019600388901b60f8161c191681555b5050505050600190811b0190555056fea26469706673582212207f9a64476f5214c8e84e9527776abc624ace3e09311662434f6a2b14ebfaefe164736f6c63430008110033",
  "linkReferences": {},
  "deployedLinkReferences": {}
}