{
  "_format": "hh-sol-artifact-1",
  "contractName": "GovernanceToken",
  "sourceName": "contracts/GovernanceToken.sol",
  "abi": [
    {
      "inputs": [
        {
          "internalType": "string",
          "name": "name",
          "type": "string"
        },
        {
          "internalType": "string",
          "name": "symbol",
          "type": "string"
        }
      ],
      "stateMutability": "nonpayable",
      "type": "constructor"
    },
    {
      "anonymous": false,
      "inputs": [
        {
          "indexed": true,
          "internalType": "address",
          "name": "owner",
          "type": "address"
        },
        {
          "indexed": true,
          "internalType": "address",
          "name": "spender",
          "type": "address"
        },
        {
          "indexed": false,
          "internalType": "uint256",
          "name": "value",
          "type": "uint256"
        }
      ],
      "name": "Approval",
      "type": "event"
    },
    {
      "anonymous": false,
      "inputs": [
        {
          "indexed": true,
          "internalType": "address",
          "name": "delegator",
          "type": "address"
        },
        {
          "indexed": true,
          "internalType": "address",
          "name": "fromDelegate",
          "type": "address"
        },
        {
          "indexed": true,
          "internalType": "address",
          "name": "toDelegate",
          "type": "address"
        }
      ],
      "name": "DelegateChanged",
      "type": "event"
    },
    {
      "anonymous": false,
      "inputs": [
        {
          "indexed": true,
          "internalType": "address",
          "name": "delegate",
          "type": "address"
        },
        {
          "indexed": false,
          "internalType": "uint256",
          "name": "previousBalance",
          "type": "uint256"
        },
        {
          "indexed": false,
          "internalType": "uint256",
          "name": "newBalance",
          "type": "uint256"
        }
      ],
      "name": "DelegateVotesChanged",
      "type": "event"
    },
    {
      "anonymous": false,
      "inputs": [
        {
          "indexed": true,
          "internalType": "address",
          "name": "from",
          "type": "address"
        },
        {
          "indexed": true,
          "internalType": "address",
          "name": "to",
          "type": "address"
        },
        {
          "indexed": false,
          "internalType": "uint256",
          "name": "value",
          "type": "uint256"
        }
      ],
      "name": "Transfer",
      "type": "event"
    },
    {
      "inputs": [],
      "name": "DOMAIN_SEPARATOR",
      "outputs": [
        {
          "internalType": "bytes32",
          "name": "",
          "type": "bytes32"
        }
      ],
      "stateMutability": "view",
      "type": "function"
    },
    {
      "inputs": [
        {
          "internalType": "address",
          "name": "owner",
          "type": "address"
        },
        {
          "internalType": "address",
          "name": "spender",
          "type": "address"
        }
      ],
      "name": "allowance",
      "outputs": [
        {
          "internalType": "uint256",
          "name": "",
          "type": "uint256"
        }
      ],
      "stateMutability": "view",
      "type": "function"
    },
    {
      "inputs": [
        {
          "internalType": "address",
          "name": "spender",
          "type": "address"
        },
        {
          "internalType": "uint256",
          "name": "amount",
          "type": "uint256"
        }
      ],
      "name": "approve",
      "outputs": [
        {
          "internalType": "bool",
          "name": "",
          "type": "bool"
        }
      ],
      "stateMutability": "nonpayable",
      "type": "function"
    },
    {
      "inputs": [
        {
          "internalType": "address",
          "name": "account",
          "type": "address"
        }
      ],
      "name": "balanceOf",
      "outputs": [
        {
          "internalType": "uint256",
          "name": "",
          "type": "uint256"
        }
      ],
      "stateMutability": "view",
      "type": "function"
    },
    {
      "inputs": [
        {
          "internalType": "address",
          "name": "account",
          "type": "address"
        },
        {
          "internalType": "uint32",
          "name": "pos",
          "type": "uint32"
        }
      ],
      "name": "checkpoints",
      "outputs": [
        {
          "components": [
            {
              "internalType": "uint32",
              "name": "fromBlock",
              "type": "uint32"
            },
            {
              "internalType": "uint224",
              "name": "votes",
              "type": "uint224"
            }
          ],
          "internalType": "struct ERC20Votes.Checkpoint",
          "name": "",
          "type": "tuple"
        }
      ],
      "stateMutability": "view",
      "type": "function"
    },
    {
      "inputs": [],
      "name": "decimals",
      "outputs": [
        {
          "internalType": "uint8",
          "name": "",
          "type": "uint8"
        }
      ],
      "stateMutability": "view",
      "type": "function"
    },
    {
      "inputs": [
        {
          "internalType": "address",
          "name": "spender",
          "type": "address"
        },
        {
          "internalType": "uint256",
          "name": "subtractedValue",
          "type": "uint256"
        }
      ],
      "name": "decreaseAllowance",
      "outputs": [
        {
          "internalType": "bool",
          "name": "",
          "type": "bool"
        }
      ],
      "stateMutability": "nonpayable",
      "type": "function"
    },
    {
      "inputs": [
        {
          "internalType": "address",
          "name": "delegatee",
          "type": "address"
        }
      ],
      "name": "delegate",
      "outputs": [],
      "stateMutability": "nonpayable",
      "type": "function"
    },
    {
      "inputs": [
        {
          "internalType": "address",
          "name": "delegatee",
          "type": "address"
        },
        {
          "internalType": "uint256",
          "name": "nonce",
          "type": "uint256"
        },
        {
          "internalType": "uint256",
          "name": "expiry",
          "type": "uint256"
        },
        {
          "internalType": "uint8",
          "name": "v",
          "type": "uint8"
        },
        {
          "internalType": "bytes32",
          "name": "r",
          "type": "bytes32"
        },
        {
          "internalType": "bytes32",
          "name": "s",
          "type": "bytes32"
        }
      ],
      "name": "delegateBySig",
      "outputs": [],
      "stateMutability": "nonpayable",
      "type": "function"
    },
    {
      "inputs": [
        {
          "internalType": "address",
          "name": "account",
          "type": "address"
        }
      ],
      "name": "delegates",
      "outputs": [
        {
          "internalType": "address",
          "name": "",
          "type": "address"
        }
      ],
      "stateMutability": "view",
      "type": "function"
    },
    {
      "inputs": [
        {
          "internalType": "uint256",
          "name": "blockNumber",
          "type": "uint256"
        }
      ],
      "name": "getPastTotalSupply",
      "outputs": [
        {
          "internalType": "uint256",
          "name": "",
          "type": "uint256"
        }
      ],
      "stateMutability": "view",
      "type": "function"
    },
    {
      "inputs": [
        {
          "internalType": "address",
          "name": "account",
          "type": "address"
        },
        {
          "internalType": "uint256",
          "name": "blockNumber",
          "type": "uint256"
        }
      ],
      "name": "getPastVotes",
      "outputs": [
        {
          "internalType": "uint256",
          "name": "",
          "type": "uint256"
        }
      ],
      "stateMutability": "view",
      "type": "function"
    },
    {
      "inputs": [
        {
          "internalType": "address",
          "name": "account",
          "type": "address"
        }
      ],
      "name": "getVotes",
      "outputs": [
        {
          "internalType": "uint256",
          "name": "",
          "type": "uint256"
        }
      ],
      "stateMutability": "view",
      "type": "function"
    },
    {
      "inputs": [
        {
          "internalType": "address",
          "name": "spender",
          "type": "address"
        },
        {
          "internalType": "uint256",
          "name": "addedValue",
          "type": "uint256"
        }
      ],
      "name": "increaseAllowance",
      "outputs": [
        {
          "internalType": "bool",
          "name": "",
          "type": "bool"
        }
      ],
      "stateMutability": "nonpayable",
      "type": "function"
    },
    {
      "inputs": [],
      "name": "maxSupply",
      "outputs": [
        {
          "internalType": "uint256",
          "name": "",
          "type": "uint256"
        }
      ],
      "stateMutability": "view",
      "type": "function"
    },
    {
      "inputs": [],
      "name": "name",
      "outputs": [
        {
          "internalType": "string",
          "name": "",
          "type": "string"
        }
      ],
      "stateMutability": "view",
      "type": "function"
    },
    {
      "inputs": [
        {
          "internalType": "address",
          "name": "owner",
          "type": "address"
        }
      ],
      "name": "nonces",
      "outputs": [
        {
          "internalType": "uint256",
          "name": "",
          "type": "uint256"
        }
      ],
      "stateMutability": "view",
      "type": "function"
    },
    {
      "inputs": [
        {
          "internalType": "address",
          "name": "account",
          "type": "address"
        }
      ],
      "name": "numCheckpoints",
      "outputs": [
        {
          "internalType": "uint32",
          "name": "",
          "type": "uint32"
        }
      ],
      "stateMutability": "view",
      "type": "function"
    },
    {
      "inputs": [
        {
          "internalType": "address",
          "name": "owner",
          "type": "address"
        },
        {
          "internalType": "address",
          "name": "spender",
          "type": "address"
        },
        {
          "internalType": "uint256",
          "name": "value",
          "type": "uint256"
        },
        {
          "internalType": "uint256",
          "name": "deadline",
          "type": "uint256"
        },
        {
          "internalType": "uint8",
          "name": "v",
          "type": "uint8"
        },
        {
          "internalType": "bytes32",
          "name": "r",
          "type": "bytes32"
        },
        {
          "internalType": "bytes32",
          "name": "s",
          "type": "bytes32"
        }
      ],
      "name": "permit",
      "outputs": [],
      "stateMutability": "nonpayable",
      "type": "function"
    },
    {
      "inputs": [],
      "name": "symbol",
      "outputs": [
        {
          "internalType": "string",
          "name": "",
          "type": "string"
        }
      ],
      "stateMutability": "view",
      "type": "function"
    },
    {
      "inputs": [],
      "name": "totalSupply",
      "outputs": [
        {
          "internalType": "uint256",
          "name": "",
          "type": "uint256"
        }
      ],
      "stateMutability": "view",
      "type": "function"
    },
    {
      "inputs": [
        {
          "internalType": "address",
          "name": "to",
          "type": "address"
        },
        {
          "internalType": "uint256",
          "name": "amount",
          "type": "uint256"
        }
      ],
      "name": "transfer",
      "outputs": [
        {
          "internalType": "bool",
          "name": "",
          "type": "bool"
        }
      ],
      "stateMutability": "nonpayable",
      "type": "function"
    },
    {
      "inputs": [
        {
          "internalType": "address",
          "name": "from",
          "type": "address"
        },
        {
          "internalType": "address",
          "name": "to",
          "type": "address"
        },
        {
          "internalType": "uint256",
          "name": "amount",
          "type": "uint256"
        }
      ],
      "name": "transferFrom",
      "outputs": [
        {
          "internalType": "bool",
          "name": "",
          "type": "bool"
        }
      ],
      "stateMutability": "nonpayable",
      "type": "function"
    }
  ],
  "bytecode": "0x6101406040523480156200001257600080fd5b50604051620026d9380380620026d98339810160408190526200003591620007a6565b6040805180820190915260018152603160f81b602082015282908190818460036200006183826200089e565b5060046200007082826200089e565b5050825160209384012082519284019290922060e08390526101008190524660a0818152604080517f8b73c3c69bb8fe3d512ecc4cf759cc79239f7b179b0ffacaa9a75d522b39400f818901819052818301979097526060810194909452608080850193909352308483018190528151808603909301835260c09485019091528151919096012090529290925261012052506200011b9050336a084595161401484a00000062000123565b5050620009ac565b6200013a82826200013e60201b62000a1f1760201c565b5050565b620001558282620001f560201b62000aaf1760201c565b6001600160e01b0362000169620002c28216565b1115620001d65760405162461bcd60e51b815260206004820152603060248201527f4552433230566f7465733a20746f74616c20737570706c79207269736b73206f60448201526f766572666c6f77696e6720766f74657360801b60648201526084015b60405180910390fd5b620001ef600962000b7a620002c860201b1783620002df565b50505050565b6001600160a01b0382166200024d5760405162461bcd60e51b815260206004820152601f60248201527f45524332303a206d696e7420746f20746865207a65726f2061646472657373006044820152606401620001cd565b806002600082825462000261919062000980565b90915550506001600160a01b038216600081815260208181526040808320805486019055518481527fddf252ad1be2c89b69c2b068fc378daa952ba7f163c4a11628f55a4df523b3ef910160405180910390a36200013a6000838362000476565b60025490565b6000620002d6828462000980565b90505b92915050565b825460009081908181156200033f576200030e876200030060018562000996565b600091825260209091200190565b60408051808201909152905463ffffffff8116825264010000000090046001600160e01b0316602082015262000354565b60408051808201909152600080825260208201525b905080602001516001600160e01b031693506200037284868860201c565b92506000821180156200038b5750805163ffffffff1643145b15620003e257620003a7836200048e60201b62000b861760201c565b620003b9886200030060018662000996565b80546001600160e01b03929092166401000000000263ffffffff90921691909117905562000467565b8660405180604001604052806200040443620004fd60201b62000bf31760201c565b63ffffffff16815260200162000425866200048e60201b62000b861760201c565b6001600160e01b0390811690915282546001810184556000938452602093849020835194909301519091166401000000000263ffffffff909316929092179101555b5050935093915050565b505050565b620004718383836200056460201b62000c581760201c565b60006001600160e01b03821115620004f95760405162461bcd60e51b815260206004820152602760248201527f53616665436173743a2076616c756520646f65736e27742066697420696e20326044820152663234206269747360c81b6064820152608401620001cd565b5090565b600063ffffffff821115620004f95760405162461bcd60e51b815260206004820152602660248201527f53616665436173743a2076616c756520646f65736e27742066697420696e203360448201526532206269747360d01b6064820152608401620001cd565b6200057c8383836200047160201b62000c8a1760201c565b6001600160a01b038381166000908152600760205260408082205485841683529120546200047192918216911683818314801590620005bb5750600081115b1562000471576001600160a01b0383161562000648576001600160a01b038316600090815260086020908152604082208291620006059190620006d3901b62000c8f1785620002df565b91509150846001600160a01b0316600080516020620026b983398151915283836040516200063d929190918252602082015260400190565b60405180910390a250505b6001600160a01b0382161562000471576001600160a01b0382166000908152600860209081526040822082916200068c9190620002c8901b62000b7a1785620002df565b91509150836001600160a01b0316600080516020620026b98339815191528383604051620006c4929190918252602082015260400190565b60405180910390a25050505050565b6000620002d6828462000996565b634e487b7160e01b600052604160045260246000fd5b600082601f8301126200070957600080fd5b81516001600160401b0380821115620007265762000726620006e1565b604051601f8301601f19908116603f01168101908282118183101715620007515762000751620006e1565b816040528381526020925086838588010111156200076e57600080fd5b600091505b8382101562000792578582018301518183018401529082019062000773565b600093810190920192909252949350505050565b60008060408385031215620007ba57600080fd5b82516001600160401b0380821115620007d257600080fd5b620007e086838701620006f7565b93506020850151915080821115620007f757600080fd5b506200080685828601620006f7565b9150509250929050565b600181811c908216806200082557607f821691505b6020821081036200084657634e487b7160e01b600052602260045260246000fd5b50919050565b601f8211156200047157600081815260208120601f850160051c81016020861015620008755750805b601f850160051c820191505b81811015620008965782815560010162000881565b505050505050565b81516001600160401b03811115620008ba57620008ba620006e1565b620008d281620008cb845462000810565b846200084c565b602080601f8311600181146200090a5760008415620008f15750858301515b600019600386901b1c1916600185901b17855562000896565b600085815260208120601f198616915b828110156200093b578886015182559484019460019091019084016200091a565b50858210156200095a5787850151600019600388901b60f8161c191681555b5050505050600190811b01905550565b634e487b7160e01b600052601160045260246000fd5b80820180821115620002d957620002d96200096a565b81810381811115620002d957620002d96200096a565b60805160a05160c05160e0516101005161012051611cbd620009fc6000396000611067015260006110b60152600061109101526000610fea015260006110140152600061103e0152611cbd6000f3fe608060405234801561001057600080fd5b506004361061014d5760003560e01c806370a08231116100c3578063a9059cbb1161007c578063a9059cbb146102f3578063c3cda52014610306578063d505accf14610319578063d5abeb011461032c578063dd62ed3e1461033e578063f1127ed81461035157600080fd5b806370a08231146102765780637ecebe001461029f5780638e539e8c146102b257806395d89b41146102c55780639ab24eb0146102cd578063a457c2d7146102e057600080fd5b80633644e515116101155780633644e515146101c757806339509351146101cf5780633a46b1a8146101e2578063587cde1e146101f55780635c19a95c146102395780636fcfff451461024e57600080fd5b806306fdde0314610152578063095ea7b31461017057806318160ddd1461019357806323b872dd146101a5578063313ce567146101b8575b600080fd5b61015a61038e565b6040516101679190611969565b60405180910390f35b61018361017e3660046119d3565b610420565b6040519015158152602001610167565b6002545b604051908152602001610167565b6101836101b33660046119fd565b61043a565b60405160128152602001610167565b61019761045e565b6101836101dd3660046119d3565b61046d565b6101976101f03660046119d3565b61048f565b610221610203366004611a39565b6001600160a01b039081166000908152600760205260409020541690565b6040516001600160a01b039091168152602001610167565b61024c610247366004611a39565b61050e565b005b61026161025c366004611a39565b61051b565b60405163ffffffff9091168152602001610167565b610197610284366004611a39565b6001600160a01b031660009081526020819052604090205490565b6101976102ad366004611a39565b61053d565b6101976102c0366004611a54565b61055b565b61015a6105b7565b6101976102db366004611a39565b6105c6565b6101836102ee3660046119d3565b61064d565b6101836103013660046119d3565b6106c8565b61024c610314366004611a7e565b6106d6565b61024c610327366004611ad6565b61080c565b6101976a084595161401484a00000081565b61019761034c366004611b40565b610970565b61036461035f366004611b73565b61099b565b60408051825163ffffffff1681526020928301516001600160e01b03169281019290925201610167565b60606003805461039d90611bb3565b80601f01602080910402602001604051908101604052809291908181526020018280546103c990611bb3565b80156104165780601f106103eb57610100808354040283529160200191610416565b820191906000526020600020905b8154815290600101906020018083116103f957829003601f168201915b5050505050905090565b60003361042e818585610c9b565b60019150505b92915050565b600033610448858285610dbf565b610453858585610e33565b506001949350505050565b6000610468610fdd565b905090565b60003361042e8185856104808383610970565b61048a9190611bfd565b610c9b565b60004382106104e55760405162461bcd60e51b815260206004820152601f60248201527f4552433230566f7465733a20626c6f636b206e6f7420796574206d696e65640060448201526064015b60405180910390fd5b6001600160a01b03831660009081526008602052604090206105079083611104565b9392505050565b61051833826111fb565b50565b6001600160a01b03811660009081526008602052604081205461043490610bf3565b6001600160a01b038116600090815260056020526040812054610434565b60004382106105ac5760405162461bcd60e51b815260206004820152601f60248201527f4552433230566f7465733a20626c6f636b206e6f7420796574206d696e65640060448201526064016104dc565b610434600983611104565b60606004805461039d90611bb3565b6001600160a01b038116600090815260086020526040812054801561063a576001600160a01b0383166000908152600860205260409020610608600183611c10565b8154811061061857610618611c23565b60009182526020909120015464010000000090046001600160e01b031661063d565b60005b6001600160e01b03169392505050565b6000338161065b8286610970565b9050838110156106bb5760405162461bcd60e51b815260206004820152602560248201527f45524332303a2064656372656173656420616c6c6f77616e63652062656c6f77604482015264207a65726f60d81b60648201526084016104dc565b6104538286868403610c9b565b60003361042e818585610e33565b834211156107265760405162461bcd60e51b815260206004820152601d60248201527f4552433230566f7465733a207369676e6174757265206578706972656400000060448201526064016104dc565b604080517fe48329057bfd03d55e49b547132e39cffd9c1820ad7b9d4c5307691425d15adf60208201526001600160a01b0388169181019190915260608101869052608081018590526000906107a0906107989060a00160405160208183030381529060405280519060200120611274565b8585856112c2565b90506107ab816112ea565b86146107f95760405162461bcd60e51b815260206004820152601960248201527f4552433230566f7465733a20696e76616c6964206e6f6e63650000000000000060448201526064016104dc565b61080381886111fb565b50505050505050565b8342111561085c5760405162461bcd60e51b815260206004820152601d60248201527f45524332305065726d69743a206578706972656420646561646c696e6500000060448201526064016104dc565b60007f6e71edae12b1b97f4d1f60370fef10105fa2faae0126114a169c64845d6126c988888861088b8c6112ea565b6040805160208101969096526001600160a01b0394851690860152929091166060840152608083015260a082015260c0810186905260e00160405160208183030381529060405280519060200120905060006108e682611274565b905060006108f6828787876112c2565b9050896001600160a01b0316816001600160a01b0316146109595760405162461bcd60e51b815260206004820152601e60248201527f45524332305065726d69743a20696e76616c6964207369676e6174757265000060448201526064016104dc565b6109648a8a8a610c9b565b50505050505050505050565b6001600160a01b03918216600090815260016020908152604080832093909416825291909152205490565b60408051808201909152600080825260208201526001600160a01b0383166000908152600860205260409020805463ffffffff84169081106109df576109df611c23565b60009182526020918290206040805180820190915291015463ffffffff8116825264010000000090046001600160e01b0316918101919091529392505050565b610a298282610aaf565b6002546001600160e01b031015610a9b5760405162461bcd60e51b815260206004820152603060248201527f4552433230566f7465733a20746f74616c20737570706c79207269736b73206f60448201526f766572666c6f77696e6720766f74657360801b60648201526084016104dc565b610aa96009610b7a83611312565b50505050565b6001600160a01b038216610b055760405162461bcd60e51b815260206004820152601f60248201527f45524332303a206d696e7420746f20746865207a65726f20616464726573730060448201526064016104dc565b8060026000828254610b179190611bfd565b90915550506001600160a01b038216600081815260208181526040808320805486019055518481527fddf252ad1be2c89b69c2b068fc378daa952ba7f163c4a11628f55a4df523b3ef910160405180910390a3610b7660008383611466565b5050565b60006105078284611bfd565b60006001600160e01b03821115610bef5760405162461bcd60e51b815260206004820152602760248201527f53616665436173743a2076616c756520646f65736e27742066697420696e20326044820152663234206269747360c81b60648201526084016104dc565b5090565b600063ffffffff821115610bef5760405162461bcd60e51b815260206004820152602660248201527f53616665436173743a2076616c756520646f65736e27742066697420696e203360448201526532206269747360d01b60648201526084016104dc565b6001600160a01b03838116600090815260076020526040808220548584168352912054610c8a92918216911683611471565b505050565b60006105078284611c10565b6001600160a01b038316610cfd5760405162461bcd60e51b8152602060048201526024808201527f45524332303a20617070726f76652066726f6d20746865207a65726f206164646044820152637265737360e01b60648201526084016104dc565b6001600160a01b038216610d5e5760405162461bcd60e51b815260206004820152602260248201527f45524332303a20617070726f766520746f20746865207a65726f206164647265604482015261737360f01b60648201526084016104dc565b6001600160a01b0383811660008181526001602090815260408083209487168084529482529182902085905590518481527f8c5be1e5ebec7d5bd14f71427d1e84f3dd0314c0f7b2291e5b200ac8c7c3b925910160405180910390a3505050565b6000610dcb8484610970565b90506000198114610aa95781811015610e265760405162461bcd60e51b815260206004820152601d60248201527f45524332303a20696e73756666696369656e7420616c6c6f77616e636500000060448201526064016104dc565b610aa98484848403610c9b565b6001600160a01b038316610e975760405162461bcd60e51b815260206004820152602560248201527f45524332303a207472616e736665722066726f6d20746865207a65726f206164604482015264647265737360d81b60648201526084016104dc565b6001600160a01b038216610ef95760405162461bcd60e51b815260206004820152602360248201527f45524332303a207472616e7366657220746f20746865207a65726f206164647260448201526265737360e81b60648201526084016104dc565b6001600160a01b03831660009081526020819052604090205481811015610f715760405162461bcd60e51b815260206004820152602660248201527f45524332303a207472616e7366657220616d6f756e7420657863656564732062604482015265616c616e636560d01b60648201526084016104dc565b6001600160a01b03848116600081815260208181526040808320878703905593871680835291849020805487019055925185815290927fddf252ad1be2c89b69c2b068fc378daa952ba7f163c4a11628f55a4df523b3ef910160405180910390a3610aa9848484611466565b6000306001600160a01b037f00000000000000000000000000000000000000000000000000000000000000001614801561103657507f000000000000000000000000000000000000000000000000000000000000000046145b1561106057507f000000000000000000000000000000000000000000000000000000000000000090565b50604080517f00000000000000000000000000000000000000000000000000000000000000006020808301919091527f0000000000000000000000000000000000000000000000000000000000000000828401527f000000000000000000000000000000000000000000000000000000000000000060608301524660808301523060a0808401919091528351808403909101815260c0909201909252805191012090565b81546000908181600581111561115e57600061111f846115ae565b6111299085611c10565b600088815260209020909150869082015463ffffffff16111561114e5780915061115c565b611159816001611bfd565b92505b505b808210156111ab5760006111728383611696565b600088815260209020909150869082015463ffffffff161115611197578091506111a5565b6111a2816001611bfd565b92505b5061115e565b80156111e5576111ce866111c0600184611c10565b600091825260209091200190565b5464010000000090046001600160e01b03166111e8565b60005b6001600160e01b03169695505050505050565b6001600160a01b038281166000818152600760208181526040808420805485845282862054949093528787166001600160a01b03198416811790915590519190951694919391928592917f3134e8a2e6d97e929a7e54011ea5485d7d196dd5f0ba4d4ef95803e8e3fc257f9190a4610aa9828483611471565b6000610434611281610fdd565b8360405161190160f01b6020820152602281018390526042810182905260009060620160405160208183030381529060405280519060200120905092915050565b60008060006112d3878787876116b1565b915091506112e081611775565b5095945050505050565b6001600160a01b03811660009081526005602052604090208054600181018255905b50919050565b8254600090819081811561135f5761132f876111c0600185611c10565b60408051808201909152905463ffffffff8116825264010000000090046001600160e01b03166020820152611374565b60408051808201909152600080825260208201525b905080602001516001600160e01b0316935061139484868863ffffffff16565b92506000821180156113ac5750805163ffffffff1643145b156113f1576113ba83610b86565b6113c9886111c0600186611c10565b80546001600160e01b03929092166401000000000263ffffffff90921691909117905561145c565b86604051806040016040528061140643610bf3565b63ffffffff16815260200161141a86610b86565b6001600160e01b0390811690915282546001810184556000938452602093849020835194909301519091166401000000000263ffffffff909316929092179101555b5050935093915050565b610c8a838383610c58565b816001600160a01b0316836001600160a01b0316141580156114935750600081115b15610c8a576001600160a01b03831615611521576001600160a01b038316600090815260086020526040812081906114ce90610c8f85611312565b91509150846001600160a01b03167fdec2bacdd2f05b59de34da9b523dff8be42e5e38e818c82fdb0bae774387a7248383604051611516929190918252602082015260400190565b60405180910390a250505b6001600160a01b03821615610c8a576001600160a01b0382166000908152600860205260408120819061155790610b7a85611312565b91509150836001600160a01b03167fdec2bacdd2f05b59de34da9b523dff8be42e5e38e818c82fdb0bae774387a724838360405161159f929190918252602082015260400190565b60405180910390a25050505050565b6000816000036115c057506000919050565b600060016115cd846118bf565b901c6001901b905060018184816115e6576115e6611c39565b048201901c905060018184816115fe576115fe611c39565b048201901c9050600181848161161657611616611c39565b048201901c9050600181848161162e5761162e611c39565b048201901c9050600181848161164657611646611c39565b048201901c9050600181848161165e5761165e611c39565b048201901c9050600181848161167657611676611c39565b048201901c90506105078182858161169057611690611c39565b04611953565b60006116a56002848418611c4f565b61050790848416611bfd565b6000807f7fffffffffffffffffffffffffffffff5d576e7357a4501ddfe92f46681b20a08311156116e8575060009050600361176c565b6040805160008082526020820180845289905260ff881692820192909252606081018690526080810185905260019060a0016020604051602081039080840390855afa15801561173c573d6000803e3d6000fd5b5050604051601f1901519150506001600160a01b0381166117655760006001925092505061176c565b9150600090505b94509492505050565b600081600481111561178957611789611c71565b036117915750565b60018160048111156117a5576117a5611c71565b036117f25760405162461bcd60e51b815260206004820152601860248201527f45434453413a20696e76616c6964207369676e6174757265000000000000000060448201526064016104dc565b600281600481111561180657611806611c71565b036118535760405162461bcd60e51b815260206004820152601f60248201527f45434453413a20696e76616c6964207369676e6174757265206c656e6774680060448201526064016104dc565b600381600481111561186757611867611c71565b036105185760405162461bcd60e51b815260206004820152602260248201527f45434453413a20696e76616c6964207369676e6174757265202773272076616c604482015261756560f01b60648201526084016104dc565b600080608083901c156118d457608092831c92015b604083901c156118e657604092831c92015b602083901c156118f857602092831c92015b601083901c1561190a57601092831c92015b600883901c1561191c57600892831c92015b600483901c1561192e57600492831c92015b600283901c1561194057600292831c92015b600183901c156104345760010192915050565b60008183106119625781610507565b5090919050565b600060208083528351808285015260005b818110156119965785810183015185820160400152820161197a565b506000604082860101526040601f19601f8301168501019250505092915050565b80356001600160a01b03811681146119ce57600080fd5b919050565b600080604083850312156119e657600080fd5b6119ef836119b7565b946020939093013593505050565b600080600060608486031215611a1257600080fd5b611a1b846119b7565b9250611a29602085016119b7565b9150604084013590509250925092565b600060208284031215611a4b57600080fd5b610507826119b7565b600060208284031215611a6657600080fd5b5035919050565b803560ff811681146119ce57600080fd5b60008060008060008060c08789031215611a9757600080fd5b611aa0876119b7565b95506020870135945060408701359350611abc60608801611a6d565b92506080870135915060a087013590509295509295509295565b600080600080600080600060e0888a031215611af157600080fd5b611afa886119b7565b9650611b08602089016119b7565b95506040880135945060608801359350611b2460808901611a6d565b925060a0880135915060c0880135905092959891949750929550565b60008060408385031215611b5357600080fd5b611b5c836119b7565b9150611b6a602084016119b7565b90509250929050565b60008060408385031215611b8657600080fd5b611b8f836119b7565b9150602083013563ffffffff81168114611ba857600080fd5b809150509250929050565b600181811c90821680611bc757607f821691505b60208210810361130c57634e487b7160e01b600052602260045260246000fd5b634e487b7160e01b600052601160045260246000fd5b8082018082111561043457610434611be7565b8181038181111561043457610434611be7565b634e487b7160e01b600052603260045260246000fd5b634e487b7160e01b600052601260045260246000fd5b600082611c6c57634e487b7160e01b600052601260045260246000fd5b500490565b634e487b7160e01b600052602160045260246000fdfea264697066735822122017ec696c17038841e010b5489f1f485c4f9187d4bfb455ac2eb5da493ba7e70f64736f6c63430008110033dec2bacdd2f05b59de34da9b523dff8be42e5e38e818c82fdb0bae774387a724",
  "linkReferences": {},
  "deployedLinkReferences": {}
}